{
  "_format": "hh-sol-artifact-1",
  "contractName": "EcommerceStore",
  "sourceName": "contracts/EcommerceStore.sol",
  "abi": [
    {
      "inputs": [],
      "stateMutability": "nonpayable",
      "type": "constructor"
    },
    {
      "anonymous": false,
      "inputs": [
        {
          "indexed": true,
          "internalType": "uint256",
          "name": "orderId",
          "type": "uint256"
        },
        {
          "indexed": true,
          "internalType": "address",
          "name": "buyer",
          "type": "address"
        },
        {
          "indexed": false,
          "internalType": "uint256",
          "name": "amount",
          "type": "uint256"
        },
        {
          "indexed": false,
          "internalType": "bytes32",
          "name": "orderHash",
          "type": "bytes32"
        },
        {
          "indexed": false,
          "internalType": "uint256",
          "name": "timestamp",
          "type": "uint256"
        }
      ],
      "name": "OrderPaid",
      "type": "event"
    },
    {
      "anonymous": false,
      "inputs": [
        {
          "indexed": true,
          "internalType": "address",
          "name": "to",
          "type": "address"
        },
        {
          "indexed": false,
          "internalType": "uint256",
          "name": "amount",
          "type": "uint256"
        }
      ],
      "name": "Withdrawal",
      "type": "event"
    },
    {
      "stateMutability": "payable",
      "type": "fallback"
    },
    {
      "inputs": [],
      "name": "getOrderCount",
      "outputs": [
        {
          "internalType": "uint256",
          "name": "",
          "type": "uint256"
        }
      ],
      "stateMutability": "view",
      "type": "function"
    },
    {
      "inputs": [
        {
          "internalType": "uint256",
          "name": "",
          "type": "uint256"
        }
      ],
      "name": "orderIds",
      "outputs": [
        {
          "internalType": "uint256",
          "name": "",
          "type": "uint256"
        }
      ],
      "stateMutability": "view",
      "type": "function"
    },
    {
      "inputs": [
        {
          "internalType": "uint256",
          "name": "",
          "type": "uint256"
        }
      ],
      "name": "orders",
      "outputs": [
        {
          "internalType": "uint256",
          "name": "orderId",
          "type": "uint256"
        },
        {
          "internalType": "address",
          "name": "buyer",
          "type": "address"
        },
        {
          "internalType": "uint256",
          "name": "amount",
          "type": "uint256"
        },
        {
          "internalType": "bytes32",
          "name": "orderHash",
          "type": "bytes32"
        },
        {
          "internalType": "uint256",
          "name": "timestamp",
          "type": "uint256"
        },
        {
          "internalType": "bool",
          "name": "isPaid",
          "type": "bool"
        }
      ],
      "stateMutability": "view",
      "type": "function"
    },
    {
      "inputs": [],
      "name": "owner",
      "outputs": [
        {
          "internalType": "address",
          "name": "",
          "type": "address"
        }
      ],
      "stateMutability": "view",
      "type": "function"
    },
    {
      "inputs": [
        {
          "internalType": "uint256",
          "name": "_orderId",
          "type": "uint256"
        },
        {
          "internalType": "bytes32",
          "name": "_orderHash",
          "type": "bytes32"
        }
      ],
      "name": "payForOrder",
      "outputs": [],
      "stateMutability": "payable",
      "type": "function"
    },
    {
      "inputs": [
        {
          "internalType": "uint256",
          "name": "_orderId",
          "type": "uint256"
        }
      ],
      "name": "verifyPayment",
      "outputs": [
        {
          "internalType": "bool",
          "name": "",
          "type": "bool"
        },
        {
          "internalType": "address",
          "name": "",
          "type": "address"
        },
        {
          "internalType": "uint256",
          "name": "",
          "type": "uint256"
        },
        {
          "internalType": "bytes32",
          "name": "",
          "type": "bytes32"
        }
      ],
      "stateMutability": "view",
      "type": "function"
    },
    {
      "inputs": [],
      "name": "withdraw",
      "outputs": [],
      "stateMutability": "nonpayable",
      "type": "function"
    },
    {
      "stateMutability": "payable",
      "type": "receive"
    }
  ],
  "bytecode": "0x608060405234801561001057600080fd5b50336000806101000a81548173ffffffffffffffffffffffffffffffffffffffff021916908373ffffffffffffffffffffffffffffffffffffffff160217905550610cc9806100606000396000f3fe6080604052600436106100745760003560e01c80635b057fd11161004e5780635b057fd1146100ed5780638d0a5fbb1461012d5780638da5cb5b14610158578063a85c38ef146101835761007b565b8063237220841461007d578063288684ed146100ba5780633ccfd60b146100d65761007b565b3661007b57005b005b34801561008957600080fd5b506100a4600480360381019061009f91906107ca565b6101c5565b6040516100b19190610806565b60405180910390f35b6100d460048036038101906100cf9190610857565b6101e9565b005b3480156100e257600080fd5b506100eb6103fb565b005b3480156100f957600080fd5b50610114600480360381019061010f91906107ca565b610610565b6040516101249493929190610902565b60405180910390f35b34801561013957600080fd5b506101426106f5565b60405161014f9190610806565b60405180910390f35b34801561016457600080fd5b5061016d610702565b60405161017a9190610947565b60405180910390f35b34801561018f57600080fd5b506101aa60048036038101906101a591906107ca565b610726565b6040516101bc96959493929190610962565b60405180910390f35b600281815481106101d557600080fd5b906000526020600020016000915090505481565b6000341161022c576040517f08c379a000000000000000000000000000000000000000000000000000000000815260040161022390610a46565b60405180910390fd5b6001600083815260200190815260200160002060050160009054906101000a900460ff1615610290576040517f08c379a000000000000000000000000000000000000000000000000000000000815260040161028790610ab2565b60405180910390fd5b6040518060c001604052808381526020013373ffffffffffffffffffffffffffffffffffffffff16815260200134815260200182815260200142815260200160011515815250600160008481526020019081526020016000206000820151816000015560208201518160010160006101000a81548173ffffffffffffffffffffffffffffffffffffffff021916908373ffffffffffffffffffffffffffffffffffffffff16021790555060408201518160020155606082015181600301556080820151816004015560a08201518160050160006101000a81548160ff02191690831515021790555090505060028290806001815401808255809150506001900390600052602060002001600090919091909150553373ffffffffffffffffffffffffffffffffffffffff16827f55f56bb48935b04e41c7c5a4a1f91a26589bd260b7ad053eeb0d1d9cdd1965c83484426040516103ef93929190610ad2565b60405180910390a35050565b60008054906101000a900473ffffffffffffffffffffffffffffffffffffffff1673ffffffffffffffffffffffffffffffffffffffff163373ffffffffffffffffffffffffffffffffffffffff1614610489576040517f08c379a000000000000000000000000000000000000000000000000000000000815260040161048090610b55565b60405180910390fd5b6000479050600081116104d1576040517f08c379a00000000000000000000000000000000000000000000000000000000081526004016104c890610bc1565b60405180910390fd5b60008060009054906101000a900473ffffffffffffffffffffffffffffffffffffffff1673ffffffffffffffffffffffffffffffffffffffff168260405161051890610c12565b60006040518083038185875af1925050503d8060008114610555576040519150601f19603f3d011682016040523d82523d6000602084013e61055a565b606091505b505090508061059e576040517f08c379a000000000000000000000000000000000000000000000000000000000815260040161059590610c73565b60405180910390fd5b60008054906101000a900473ffffffffffffffffffffffffffffffffffffffff1673ffffffffffffffffffffffffffffffffffffffff167f7fcf532c15f0a6db0bd6d0e038bea71d30d808c7d98cb3bf7268a95bf5081b65836040516106049190610806565b60405180910390a25050565b6000806000806000600160008781526020019081526020016000206040518060c0016040529081600082015481526020016001820160009054906101000a900473ffffffffffffffffffffffffffffffffffffffff1673ffffffffffffffffffffffffffffffffffffffff1673ffffffffffffffffffffffffffffffffffffffff1681526020016002820154815260200160038201548152602001600482015481526020016005820160009054906101000a900460ff16151515158152505090508060a001518160200151826040015183606001519450945094509450509193509193565b6000600280549050905090565b60008054906101000a900473ffffffffffffffffffffffffffffffffffffffff1681565b60016020528060005260406000206000915090508060000154908060010160009054906101000a900473ffffffffffffffffffffffffffffffffffffffff16908060020154908060030154908060040154908060050160009054906101000a900460ff16905086565b600080fd5b6000819050919050565b6107a781610794565b81146107b257600080fd5b50565b6000813590506107c48161079e565b92915050565b6000602082840312156107e0576107df61078f565b5b60006107ee848285016107b5565b91505092915050565b61080081610794565b82525050565b600060208201905061081b60008301846107f7565b92915050565b6000819050919050565b61083481610821565b811461083f57600080fd5b50565b6000813590506108518161082b565b92915050565b6000806040838503121561086e5761086d61078f565b5b600061087c858286016107b5565b925050602061088d85828601610842565b9150509250929050565b60008115159050919050565b6108ac81610897565b82525050565b600073ffffffffffffffffffffffffffffffffffffffff82169050919050565b60006108dd826108b2565b9050919050565b6108ed816108d2565b82525050565b6108fc81610821565b82525050565b600060808201905061091760008301876108a3565b61092460208301866108e4565b61093160408301856107f7565b61093e60608301846108f3565b95945050505050565b600060208201905061095c60008301846108e4565b92915050565b600060c08201905061097760008301896107f7565b61098460208301886108e4565b61099160408301876107f7565b61099e60608301866108f3565b6109ab60808301856107f7565b6109b860a08301846108a3565b979650505050505050565b600082825260208201905092915050565b7f5061796d656e7420616d6f756e74206d7573742062652067726561746572207460008201527f68616e2030000000000000000000000000000000000000000000000000000000602082015250565b6000610a306025836109c3565b9150610a3b826109d4565b604082019050919050565b60006020820190508181036000830152610a5f81610a23565b9050919050565b7f4f7264657220616c726561647920706169640000000000000000000000000000600082015250565b6000610a9c6012836109c3565b9150610aa782610a66565b602082019050919050565b60006020820190508181036000830152610acb81610a8f565b9050919050565b6000606082019050610ae760008301866107f7565b610af460208301856108f3565b610b0160408301846107f7565b949350505050565b7f4f6e6c79206f776e65722063616e2063616c6c20746869730000000000000000600082015250565b6000610b3f6018836109c3565b9150610b4a82610b09565b602082019050919050565b60006020820190508181036000830152610b6e81610b32565b9050919050565b7f4e6f2066756e647320746f207769746864726177000000000000000000000000600082015250565b6000610bab6014836109c3565b9150610bb682610b75565b602082019050919050565b60006020820190508181036000830152610bda81610b9e565b9050919050565b600081905092915050565b50565b6000610bfc600083610be1565b9150610c0782610bec565b600082019050919050565b6000610c1d82610bef565b9150819050919050565b7f5769746864726177616c206661696c6564000000000000000000000000000000600082015250565b6000610c5d6011836109c3565b9150610c6882610c27565b602082019050919050565b60006020820190508181036000830152610c8c81610c50565b905091905056fea26469706673582212207cac0004d19437b39c24b498dc5be02afd4783390d8655a728d9d7dee8b2cf0664736f6c63430008140033",
  "linkReferences": {},
  "deployedLinkReferences": {}
}